{
  "contractName": "Crud",
  "abi": [
    {
      "inputs": [],
      "name": "nextId",
      "outputs": [
        {
          "internalType": "uint256",
          "name": "",
          "type": "uint256"
        }
      ],
      "stateMutability": "view",
      "type": "function",
      "constant": true
    },
    {
      "inputs": [
        {
          "internalType": "uint256",
          "name": "",
          "type": "uint256"
        }
      ],
      "name": "users",
      "outputs": [
        {
          "internalType": "uint256",
          "name": "id",
          "type": "uint256"
        },
        {
          "internalType": "string",
          "name": "name",
          "type": "string"
        }
      ],
      "stateMutability": "view",
      "type": "function",
      "constant": true
    },
    {
      "inputs": [
        {
          "internalType": "string",
          "name": "name",
          "type": "string"
        }
      ],
      "name": "create",
      "outputs": [],
      "stateMutability": "nonpayable",
      "type": "function"
    },
    {
      "inputs": [],
      "name": "getAll",
      "outputs": [
        {
          "components": [
            {
              "internalType": "uint256",
              "name": "id",
              "type": "uint256"
            },
            {
              "internalType": "string",
              "name": "name",
              "type": "string"
            }
          ],
          "internalType": "struct Crud.User[]",
          "name": "",
          "type": "tuple[]"
        }
      ],
      "stateMutability": "view",
      "type": "function",
      "constant": true
    },
    {
      "inputs": [
        {
          "internalType": "uint256",
          "name": "id",
          "type": "uint256"
        }
      ],
      "name": "read",
      "outputs": [
        {
          "components": [
            {
              "internalType": "uint256",
              "name": "id",
              "type": "uint256"
            },
            {
              "internalType": "string",
              "name": "name",
              "type": "string"
            }
          ],
          "internalType": "struct Crud.User",
          "name": "",
          "type": "tuple"
        }
      ],
      "stateMutability": "view",
      "type": "function",
      "constant": true
    },
    {
      "inputs": [
        {
          "internalType": "uint256",
          "name": "id",
          "type": "uint256"
        },
        {
          "internalType": "string",
          "name": "name",
          "type": "string"
        }
      ],
      "name": "update",
      "outputs": [],
      "stateMutability": "nonpayable",
      "type": "function"
    },
    {
      "inputs": [
        {
          "internalType": "uint256",
          "name": "id",
          "type": "uint256"
        }
      ],
      "name": "destroy",
      "outputs": [],
      "stateMutability": "nonpayable",
      "type": "function"
    }
  ],
  "bytecode": "0x60806040526001805534801561001457600080fd5b50610da0806100246000396000f3fe608060405234801561001057600080fd5b506004361061007d5760003560e01c80639d1187701161005b5780639d118770146100ef578063b6a46b3b1461010b578063ed2e5a9714610127578063f745630f146101575761007d565b8063365b98b21461008257806353ed5143146100b357806361b8ce8c146100d1575b600080fd5b61009c60048036038101906100979190610828565b610173565b6040516100aa929190610af7565b60405180910390f35b6100bb61022f565b6040516100c89190610a78565b60405180910390f35b6100d961032a565b6040516100e69190610adc565b60405180910390f35b61010960048036038101906101049190610828565b610330565b005b610125600480360381019061012091906107e7565b6103a4565b005b610141600480360381019061013c9190610828565b61042a565b60405161014e9190610aba565b60405180910390f35b610171600480360381019061016c9190610851565b610536565b005b6000818154811061018357600080fd5b90600052602060002090600202016000915090508060000154908060010180546101ac90610c3a565b80601f01602080910402602001604051908101604052809291908181526020018280546101d890610c3a565b80156102255780601f106101fa57610100808354040283529160200191610225565b820191906000526020600020905b81548152906001019060200180831161020857829003601f168201915b5050505050905082565b60606000805480602002602001604051908101604052809291908181526020016000905b8282101561032157838290600052602060002090600202016040518060400160405290816000820154815260200160018201805461029090610c3a565b80601f01602080910402602001604051908101604052809291908181526020018280546102bc90610c3a565b80156103095780601f106102de57610100808354040283529160200191610309565b820191906000526020600020905b8154815290600101906020018083116102ec57829003601f168201915b50505050508152505081526020019060010190610253565b50505050905090565b60015481565b600061033b826105a8565b905060008181548110610377577f4e487b7100000000000000000000000000000000000000000000000000000000600052603260045260246000fd5b906000526020600020906002020160008082016000905560018201600061039e919061066d565b50505050565b60006040518060400160405280600154815260200183815250908060018154018082558091505060019003906000526020600020906002020160009091909190915060008201518160000155602082015181600101908051906020019061040c9291906106ad565b5050506001600081548092919061042290610c6c565b919050555050565b610432610733565b600061043d836105a8565b905060008181548110610479577f4e487b7100000000000000000000000000000000000000000000000000000000600052603260045260246000fd5b9060005260206000209060020201604051806040016040529081600082015481526020016001820180546104ac90610c3a565b80601f01602080910402602001604051908101604052809291908181526020018280546104d890610c3a565b80156105255780601f106104fa57610100808354040283529160200191610525565b820191906000526020600020905b81548152906001019060200180831161050857829003601f168201915b505050505081525050915050919050565b6000610541836105a8565b9050816000828154811061057e577f4e487b7100000000000000000000000000000000000000000000000000000000600052603260045260246000fd5b906000526020600020906002020160010190805190602001906105a29291906106ad565b50505050565b600080600090505b60008054905081101561062c5782600082815481106105f8577f4e487b7100000000000000000000000000000000000000000000000000000000600052603260045260246000fd5b90600052602060002090600202016000015414156106195780915050610668565b808061062490610c6c565b9150506105b0565b506040517f08c379a000000000000000000000000000000000000000000000000000000000815260040161065f90610a9a565b60405180910390fd5b919050565b50805461067990610c3a565b6000825580601f1061068b57506106aa565b601f0160209004906000526020600020908101906106a9919061074d565b5b50565b8280546106b990610c3a565b90600052602060002090601f0160209004810192826106db5760008555610722565b82601f106106f457805160ff1916838001178555610722565b82800160010185558215610722579182015b82811115610721578251825591602001919060010190610706565b5b50905061072f919061074d565b5090565b604051806040016040528060008152602001606081525090565b5b8082111561076657600081600090555060010161074e565b5090565b600061077d61077884610b58565b610b27565b90508281526020810184848401111561079557600080fd5b6107a0848285610bf8565b509392505050565b600082601f8301126107b957600080fd5b81356107c984826020860161076a565b91505092915050565b6000813590506107e181610d53565b92915050565b6000602082840312156107f957600080fd5b600082013567ffffffffffffffff81111561081357600080fd5b61081f848285016107a8565b91505092915050565b60006020828403121561083a57600080fd5b6000610848848285016107d2565b91505092915050565b6000806040838503121561086457600080fd5b6000610872858286016107d2565b925050602083013567ffffffffffffffff81111561088f57600080fd5b61089b858286016107a8565b9150509250929050565b60006108b183836109e0565b905092915050565b60006108c482610b98565b6108ce8185610bbb565b9350836020820285016108e085610b88565b8060005b8581101561091c57848403895281516108fd85826108a5565b945061090883610bae565b925060208a019950506001810190506108e4565b50829750879550505050505092915050565b600061093982610ba3565b6109438185610bcc565b9350610953818560208601610c07565b61095c81610d42565b840191505092915050565b600061097282610ba3565b61097c8185610bdd565b935061098c818560208601610c07565b61099581610d42565b840191505092915050565b60006109ad601483610bdd565b91507f5573657220646f6573206e6f74206578697374210000000000000000000000006000830152602082019050919050565b60006040830160008301516109f86000860182610a5a565b5060208301518482036020860152610a10828261092e565b9150508091505092915050565b6000604083016000830151610a356000860182610a5a565b5060208301518482036020860152610a4d828261092e565b9150508091505092915050565b610a6381610bee565b82525050565b610a7281610bee565b82525050565b60006020820190508181036000830152610a9281846108b9565b905092915050565b60006020820190508181036000830152610ab3816109a0565b9050919050565b60006020820190508181036000830152610ad48184610a1d565b905092915050565b6000602082019050610af16000830184610a69565b92915050565b6000604082019050610b0c6000830185610a69565b8181036020830152610b1e8184610967565b90509392505050565b6000604051905081810181811067ffffffffffffffff82111715610b4e57610b4d610d13565b5b8060405250919050565b600067ffffffffffffffff821115610b7357610b72610d13565b5b601f19601f8301169050602081019050919050565b6000819050602082019050919050565b600081519050919050565b600081519050919050565b6000602082019050919050565b600082825260208201905092915050565b600082825260208201905092915050565b600082825260208201905092915050565b6000819050919050565b82818337600083830152505050565b60005b83811015610c25578082015181840152602081019050610c0a565b83811115610c34576000848401525b50505050565b60006002820490506001821680610c5257607f821691505b60208210811415610c6657610c65610ce4565b5b50919050565b6000610c7782610bee565b91507fffffffffffffffffffffffffffffffffffffffffffffffffffffffffffffffff821415610caa57610ca9610cb5565b5b600182019050919050565b7f4e487b7100000000000000000000000000000000000000000000000000000000600052601160045260246000fd5b7f4e487b7100000000000000000000000000000000000000000000000000000000600052602260045260246000fd5b7f4e487b7100000000000000000000000000000000000000000000000000000000600052604160045260246000fd5b6000601f19601f8301169050919050565b610d5c81610bee565b8114610d6757600080fd5b5056fea26469706673582212205a7cef522610ff06540e8ed4c68148a3d4a9594b09b981a1325ca41f0e59d84b64736f6c63430008000033",
  "immutableReferences": {},
  "source": "// SPDX-License-Identifier: GPL-3.0\n\npragma solidity >=0.7.0 <0.9.0;\n\ncontract Crud {\n    struct User {\n        uint256 id;\n        string name;\n    }\n\n    User[] public users;\n    uint256 public nextId = 1;\n\n    function create(string memory name) public {\n        users.push(User(nextId, name));\n        nextId++;\n    }\n\n    function getAll() public view returns (User[] memory) {\n        return users;\n    }\n\n    function read(uint256 id) public view returns (User memory) {\n        uint256 i = find(id);\n        return users[i];\n    }\n\n    function update(uint256 id, string memory name) public {\n        uint256 i = find(id);\n        users[i].name = name;\n    }\n\n    function destroy(uint256 id) public {\n        uint256 i = find(id);\n        delete users[i];\n    }\n\n    function find(uint256 id) internal view returns (uint256) {\n        for (uint256 i = 0; i < users.length; i++) {\n            if (users[i].id == id) {\n                return i;\n            }\n        }\n        revert(\"User does not exist!\");\n    }\n}\n",
  "sourcePath": "/Users/lucas.michailian/projects/30-days-dapps/crud/contracts/Crud.sol",
  "compiler": {
    "name": "solc",
    "version": "0.8.0+commit.c7dfd78e.Emscripten.clang"
  },
  "schemaVersion": "3.4.3",
  "updatedAt": "2021-12-25T15:26:31.537Z",
  "networkType": "ethereum",
  "devdoc": {
    "kind": "dev",
    "methods": {},
    "version": 1
  },
  "userdoc": {
    "kind": "user",
    "methods": {},
    "version": 1
  }
}