{
  "contractName": "Wallet",
  "abi": [
    {
      "inputs": [
        {
          "internalType": "address",
          "name": "_owner",
          "type": "address"
        }
      ],
      "stateMutability": "nonpayable",
      "type": "constructor"
    },
    {
      "inputs": [],
      "name": "owner",
      "outputs": [
        {
          "internalType": "address",
          "name": "",
          "type": "address"
        }
      ],
      "stateMutability": "view",
      "type": "function",
      "constant": true
    },
    {
      "inputs": [],
      "name": "deposit",
      "outputs": [],
      "stateMutability": "payable",
      "type": "function",
      "payable": true
    },
    {
      "inputs": [
        {
          "internalType": "address payable",
          "name": "to",
          "type": "address"
        },
        {
          "internalType": "uint256",
          "name": "amount",
          "type": "uint256"
        }
      ],
      "name": "send",
      "outputs": [],
      "stateMutability": "nonpayable",
      "type": "function"
    },
    {
      "inputs": [],
      "name": "balanceOf",
      "outputs": [
        {
          "internalType": "uint256",
          "name": "",
          "type": "uint256"
        }
      ],
      "stateMutability": "view",
      "type": "function",
      "constant": true
    }
  ],
  "bytecode": "0x608060405234801561001057600080fd5b506040516106493803806106498339818101604052810190610032919061008d565b806000806101000a81548173ffffffffffffffffffffffffffffffffffffffff021916908373ffffffffffffffffffffffffffffffffffffffff160217905550506100ff565b600081519050610087816100e8565b92915050565b60006020828403121561009f57600080fd5b60006100ad84828501610078565b91505092915050565b60006100c1826100c8565b9050919050565b600073ffffffffffffffffffffffffffffffffffffffff82169050919050565b6100f1816100b6565b81146100fc57600080fd5b50565b61053b8061010e6000396000f3fe60806040526004361061003f5760003560e01c8063722713f7146100445780638da5cb5b1461006f578063d0679d341461009a578063d0e30db0146100c3575b600080fd5b34801561005057600080fd5b506100596100cd565b6040516100669190610452565b60405180910390f35b34801561007b57600080fd5b506100846100d5565b60405161009191906103d7565b60405180910390f35b3480156100a657600080fd5b506100c160048036038101906100bc919061028e565b6100f9565b005b6100cb610262565b005b600047905090565b60008054906101000a900473ffffffffffffffffffffffffffffffffffffffff1681565b806101026100cd565b1015610143576040517f08c379a000000000000000000000000000000000000000000000000000000000815260040161013a906103f2565b60405180910390fd5b3373ffffffffffffffffffffffffffffffffffffffff168273ffffffffffffffffffffffffffffffffffffffff16146101b1576040517f08c379a00000000000000000000000000000000000000000000000000000000081526004016101a890610412565b60405180910390fd5b60008273ffffffffffffffffffffffffffffffffffffffff16826040516101d7906103c2565b60006040518083038185875af1925050503d8060008114610214576040519150601f19603f3d011682016040523d82523d6000602084013e610219565b606091505b505090508061025d576040517f08c379a000000000000000000000000000000000000000000000000000000000815260040161025490610432565b60405180910390fd5b505050565b565b600081359050610273816104d7565b92915050565b600081359050610288816104ee565b92915050565b600080604083850312156102a157600080fd5b60006102af85828601610264565b92505060206102c085828601610279565b9150509250929050565b6102d381610489565b82525050565b60006102e6601283610478565b91507f496e737566696369656e7420666f756e647300000000000000000000000000006000830152602082019050919050565b6000610326600c83610478565b91507f446f6e7420616c6c6f77656400000000000000000000000000000000000000006000830152602082019050919050565b6000610366600f83610478565b91507f5472616e73666572204661696c656400000000000000000000000000000000006000830152602082019050919050565b60006103a660008361046d565b9150600082019050919050565b6103bc816104cd565b82525050565b60006103cd82610399565b9150819050919050565b60006020820190506103ec60008301846102ca565b92915050565b6000602082019050818103600083015261040b816102d9565b9050919050565b6000602082019050818103600083015261042b81610319565b9050919050565b6000602082019050818103600083015261044b81610359565b9050919050565b600060208201905061046760008301846103b3565b92915050565b600081905092915050565b600082825260208201905092915050565b6000610494826104ad565b9050919050565b60006104a6826104ad565b9050919050565b600073ffffffffffffffffffffffffffffffffffffffff82169050919050565b6000819050919050565b6104e08161049b565b81146104eb57600080fd5b50565b6104f7816104cd565b811461050257600080fd5b5056fea26469706673582212206e6ec7f2e0e185e1f0ac6bb0a9acdc60b784b030788e2e2b0a470cc5261c7a3b64736f6c63430008000033",
  "immutableReferences": {},
  "source": "// SPDX-License-Identifier: GPL-3.0\npragma solidity >=0.7.0 <0.9.0;\n\ncontract Wallet {\n    address public owner;\n\n    constructor(address _owner) {\n        owner = _owner;\n    }\n\n    function deposit() public payable {}\n\n    function send(address payable to, uint256 amount) public {\n        require(balanceOf() >= amount, \"Insuficient founds\");\n        require(to == msg.sender, \"Dont allowed\");\n\n        (bool success, ) = to.call{value: amount}(\"\");\n        require(success, \"Transfer Failed\");\n    }\n\n    function balanceOf() public view returns (uint256) {\n        return address(this).balance;\n    }\n}\n",
  "sourcePath": "/Users/lucas.michailian/projects/30-days-dapps/simple-wallet/contracts/Wallet.sol",
  "compiler": {
    "name": "solc",
    "version": "0.8.0+commit.c7dfd78e.Emscripten.clang"
  },
  "schemaVersion": "3.4.3",
  "updatedAt": "2021-12-26T12:49:15.308Z",
  "networkType": "ethereum",
  "devdoc": {
    "kind": "dev",
    "methods": {},
    "version": 1
  },
  "userdoc": {
    "kind": "user",
    "methods": {},
    "version": 1
  }
}